:1000000002000375814F120127E582600302006F31
:10001000780079007A007B007C007D00EC4D601C4C
:1000200088828983E493A3A882A9838A828B83F040
:10003000A3AA82AB831CBCFFE31D80E07582007520
:1000400083007C007D00EC4D600AE4F0A31CBCFF43
:10005000F51D80F27582007583007C007D00EC4DFB
:10006000600AE4F0A31CBCFFF51D80F21201261209
:10007000059E80FE457874656E73696F6E20747995
:1000800070653A20253032782020253032782020C3
:1000900025303278202025303278202025303278E3
:1000A0002020253032780A00310D00320D00330D4A
:1000B000004F66667365745F583A253464204F6656
:1000C000667365745F593A2534640A0A0042757490
:1000D000746F6E73285A3A25632C20433A2563299E
:1000E000204A6F79737469636B282534642C20254A
:1000F00034642920416363656C65726F6D65746556
:1001000072282533642C202533642C202533642960
:100110001B5B304A0D002025630D003C4E4F2046EE
:100120004C4F41543E002253D9BF75FF8075EF06F6
:1001300043A90343B203758D30538EF4438E088573
:100140008D8B53890F438920D28E75985275A410D8
:1001500043A60675E10575E240438E045389F043DA
:100160008902758C60758A60D28C75C15C43C180D0
:10017000D2A275820022AA82ABBF75BF0F43E401F1
:100180007592807593448592948593957591047CBE
:1001900000C3EC9A500BE59130E7FB53917F0C8044
:1001A000F07591008BBF228582C2C2C030C0FD2293
:1001B000C2C030C0FD85C28222D2C1D2C5C2C4C273
:1001C000C030C0FDC2C522D2C4C2C0221201B9755E
:1001D00082A41201A77582F01201A775825512013F
:1001E000A71201C77582011201761201B97582A4A6
:1001F0001201A77582FB1201A77582001201A712D6
:1002000001C77582011201761201B97582A412012B
:10021000A77582FA1201A71201C77582031201762F
:100220001201B97582A51201A77A00BA060050150D
:10023000EA2423F8C002C0001201B0E582D000D049
:1002400002F60A80E6C2C11201C775820312017666
:1002500030004BAA287B00AC277D00852629752A13
:100260000085252B752C0085242D752E00AE237F4F
:1002700000C002C003C004C005C029C02AC02BC0F2
:100280002CC02DC02EC006C0077474C0E07400C01E
:10029000E07480C0E01207EFE58124F1F5811201DE
:1002A000B97582A41201A77582F01201A77582AAFE
:1002B0001201A71201C77582011201761201B975E8
:1002C00082A41201A77582401201A7758200120153
:1002D000A77582001201A77582001201A77582001E
:1002E0001201A77582001201A77582001201A712E0
:1002F00001C77582011201761201B97582A412013B
:10030000A77582401201A77582001201A7758200AD
:100310001201A77582001201A77582001201A7754C
:1003200082001201A77582001201A71201C775820F
:10033000011201761201B97582A41201A7758240DB
:100340001201A77582001201A77582001201A7751C
:1003500082001201A77582001201A71201C77582DF
:1003600001020176AA82AB83ACF0C002C003C004D4
:100370001201B97582A41201A77582001201A71299
:1003800001C77582031201761201B97582A51201A7
:10039000A7D004D003D0027D00BD0600503AED2A5C
:1003A000FEE43BFF8C00C002C003C004C005C006D1
:1003B000C007C0001201B0E582D000D007D006D03F
:1003C00005D004D003D00264172417F98E828F83DE
:1003D00088F01208100D80C1C2C10201C7AA82AB09
:1003E00083ACF0FD75E50C75D2208A468B478C48AE
:1003F0008D49906C0075F0DC7402120775AA82AB0F
:1004000083ACF0C313F532EC13F531EB13F530EA9E
:1004100013F52F7546FF7547FF7548007549008530
:100420002F828530838531F0E532120775AE82AFB9
:1004300083A8F0F9C3EE9401EF9400E89400E994E6
:1004400000501CE4C3952FFAE49530FB74019531FC
:10045000FCE49532FD8AB48BB543AC03020523C39B
:10046000EE9404EF9400E89400E994005039E532EA
:10047000C313FDE53113FCE53013FBE52F13FAED53
:10048000C313FDEC13FCEB13FBEA13FAE4C39AFA73
:10049000E49BFB74019CFCE49DFD8AB48BB553ACDA
:1004A000FC43AC01020523C3EE940CEF9400E894E6
:1004B00000E99400503675460CE4F547F548F549D7
:1004C000852F828530838531F0E532120775AA8247
:1004D000AB83ACF0FDE4C39AFAE49BFB74019CFC93
:1004E000E49DFD8AB48BB553ACFC8037754630E48F
:1004F000F547F548F549852F828530838531F0E54C
:1005000032120775AA82AB83ACF0FDE4C39AFAE419
:100510009BFB74019CFCE49DFD8AB48BB553ACFC41
:1005200043AC0243D20243AC4075E30175E2402282
:10053000AA82C00274A8C0E07400C0E07480C0E069
:100540001207EF158115811581D002BA0A0BE5D289
:1005500030E1FB53D2FD75D30DC00274ABC0E07423
:1005600000C0E07480C0E01207EF1581158115818D
:10057000D002E5D230E1FB53D2FD8AD374AEC0E0A5
:100580007400C0E07480C0E01207EF15811581157A
:100590008122E5D230E0FB53D2FE85D3822290C285
:1005A0000075F001E41203DD7582C8120176D200F5
:1005B0001201CC75826412017690003375F04012FE
:1005C0000364AA337B00EA2480F53BEB34FFF53C5F
:1005D000AC347D00EC2480F53DED34FFF53EC03DAC
:1005E000C03EC03BC03C74B1C0E07400C0E0748049
:1005F000C0E01207EFE58124F9F58190003375F032
:1006000040120364AE337F00EE2480FEEF34FFFF20
:10061000EEC3953BFEEF953CFFAC347D00EC2480AF
:10062000FCED34FFFDECC3953DF539ED953EF53A13
:10063000E53575F004A4F53F85F040E53675F00426
:10064000A4F54185F042E53775F004A4F54385F043
:1006500044E538139201E538A2E19202E53830E230
:100660000B7402253FF53FE43540F540E53830E3B3
:1006700008053FE4B53F020540E53830E40B74025D
:100680002541F541E43542F542E53830E5080541BC
:10069000E4B541020542E53830E60B74022543F526
:1006A00043E43544F544E53830E7080543E4B54311
:1006B0000205443002047A3180027A30EA3395E050
:1006C000FB3001057545318003754530E545FC3348
:1006D00095E0FDC006C007C043C044C041C042C051
:1006E0003FC040C039C03AC006C007C002C003C006
:1006F00004C00574CDC0E07400C0E07480C0E01296
:1007000007EFE58124EFF581D007D006747FB53976
:1007100006E4B53A02800280047A7580247480B5BC
:10072000390974FFB53A047A648016BE8007BF00A9
:10073000047A72800CBE8107BFFF047A6C80027A53
:1007400073EAFB3395E0FCC002C003C0047416C01A
:10075000E07401C0E07480C0E01207EFE58124FB83
:10076000F581D00243D2028A82120530758264126A
:1007700001760205FBFB7A20E4FCFDFEFFE5822505
:1007800082F582E58333F583E5F033F5F0EB33FB57
:100790004017DAE98042E5822582F582E58333F568
:1007A00083E5F033F5F0EB33FBEC33FCED33FDEE9A
:1007B00033FEEF33FFEC9546ED9547EE9548EF9508
:1007C000494013EC9546FCED9547FDEE9548FEEF4C
:1007D0009549FF438201DABEEB22020E4985821859
:1007E00085831985F01A85091B9007DA0208B2C0C3
:1007F00008858108E50824FBF51BE50824FBF8863D
:100800001808861908861A9007DA1208B2D008224A
:1008100020F71030F6118883A88220F507F6A88308
:1008200075830022F280F7F022AA82743AC0E07445
:1008300008C0E0C00AC00B8A82220511E4B511028B
:10084000051222AA8274302AFA24C6500A74072A92
:10085000FA3003034302208A82020829E582FAC49F
:10086000540FF582C002120843D002740F5AF58269
:10087000020843AA0CAB0DAC0EAD0FAE10751720DD
:10088000EE2EFEED235401FF4206EA2AFAEB33FB7B
:10089000EC33FCED33FDC3EE95134008EEC3951326
:1008A000FE430201D517D98A0C8B0D8C0E8D0F8E4D
:1008B000102285820A85830BE4F511F512AA18AB84
:1008C00019AC1A8A828B838CF0120E5EFD74012A99
:1008D000F518E43BF5198C1AEDFA7003020E42BAD2
:1008E00025028003020E3AC207C208C209C20AC228
:1008F0000BC20CC20DC20EC204C205C206751300A3
:100900007514007515FFAB18AC19AD1A8B828C836A
:100910008DF0120E5EFAA3AB82AC838B188C198D0E
:100920001ABA25078A8212082980928A06BE3000E8
:10093000402E8A06EE24C6402774FFB51513E51431
:1009400075F00AA4FEEA24D02EF51470BFD20880F8
:10095000BBE51575F00AA4FEEA24D02EF51580AC8F
:10096000BA2E0A74FFB515A4751500809F8A06BEBD
:100970006100400E8A06EE248540075302DFD20351
:100980008002C203BA20028075BA2303020A0DBA9C
:100990002A03020A12BA2B02805FBA2D028055BACE
:1009A0004202805FBA4303020A57BA4403020B9221
:1009B000BA4503020BACBA4603020BA8BA470302BE
:1009C0000BB0BA4903020B92BA4C02803BBA4E03F9
:1009D000020BB4BA4F03020B99BA5003020B2BBAA5
:1009E0005303020A7BBA5503020B9EBA5803020B4B
:1009F000A3020BDED20702090CD20902090CD20AAB
:100A000002090CD20C02090CD20D02090CD20E0202
:100A1000090C74FFB51520300C0BE51B14F8881B6E
:100A2000861402090CE51B24FEF8881B860608863E
:100A300007188E1402090C300C0BE51B14F8881BE8
:100A4000861502090CE51B24FEF8881B860608861D
:100A500007188E1502090C300C0AE51B14F8881BC8
:100A60008602800FE51B24FEF8881B860308860497
:100A7000188B028A82120829020BE3E51B24FDF879
:100A8000881B860308860408860518188B0C8C0DB5
:100A90008D0E8B828C838DF0120E7AAB82AC838BA1
:100AA0001674FFB5150385161520071DC3E51695A9
:100AB000145016E514C39516F514AB141514EB6019
:100AC0000875822012082980F1850C82850D8385A6
:100AD0000EF0120E5EFBFA6029AB151515C3E46427
:100AE000808BF063F08095F050188A82120829AB51
:100AF0000CAC0DAD0E0BBB00010C8B0C8C0D8D0ED8
:100B000080C7200703020BE3C3E5169514400302D8
:100B10000BE3E514C39516F514AB141514EB700331
:100B2000020BE375822012082980EEE51B24FDF8F4
:100B3000881B860308860408860518188B0C8C0D04
:100B40008D0EE50EFB30E7047A438013EB546060B2
:100B5000047A50800AEB30E6047A4980027A588A97
:100B600082C00212082975823A1208297582301251
:100B70000829758278120829D002BA4902800BBA76
:100B800050028006850D8212085C850C8212085C7A
:100B90008051D20B75130A804A751308804575136E
:100BA0000A8040751310803BD2048037D205803311
:100BB000D206802FE51B24FDF8881B8603088604D7
:100BC00008860518188B0C8C0D8D0E8B828C838DEE
:100BD000F0E511120810A3E51212081080058A82B0
:100BE00012082920040620050330065AE51B24FCC0
:100BF000F8881B86030886040886050886061818E8
:100C0000188B0C8C0D8D0E8E0F750C1B750D0175D0
:100C10000E80850C1C850D1D850E1E7401251CFE85
:100C2000E4351DFFAB1E8E0C8F0D8B0E851C82854F
:100C30001D83851EF0120E5EFBFA70030208BD8A4A
:100C40008212082980CCE51370030208BD7B4F3067
:100C50000C2BE51B14F8881BE6FC3395E0FDFEFF2A
:100C60008C0C8D0D8E0E8F0F200B5EAC0C7D007EDC
:100C7000007F008C0C8D0D8E0E8F0F804C300D1F61
:100C8000E51B24FCF8881B860408860508860608F0
:100C900086071818188C0C8D0D8E0E8F0F802AE584
:100CA0001B24FEF8881B860408860518ED3395E0A2
:100CB000FEFF8C0C8D0D8E0E8F0F200B0CAC0CAD2F
:100CC0000D7E007F008E0E8F0F300E43E50C450D1C
:100CD000450E450F60397408B5130C758230C0039A
:100CE000120829D00380287410B51323758230C0F0
:100CF00003120829D00330030C758278C003120850
:100D000029D003800A758258C003120829D0033005
:100D10000B25AC0CAD0DAE0EE50FFF30E717C3E4AD
:100D20009CFCE49DFDE49EFEE49FFF8C0C8D0D8EEB
:100D30000E8F0F8002C20B751600D20F8B0075103C
:100D400000C000120873D000200F0DE510C4FCE6AF
:100D5000FD4CF61888038002A6100516B20FE50CAC
:100D6000450D450E450F70D68803E51470037514C4
:100D70000120081A200717E51604FCC39514500E2D
:100D8000758220C003120829D003151480E9300BA6
:100D90000E75822DC003120829D00315148024E596
:100DA00016602030090E75822BC003120829D0036B
:100DB0001514800F300A0C758220C003120829D048
:100DC00003151420071EAC141514C3E5169C5027F8
:100DD0003008047C3080027C208C82C003120829F9
:100DE000D00380E2C3E51695145009E514C39516A7
:100DF000F51480037514008B00AB161516EB6022FA
:100E0000B20F200F0A08E6C4540FFB8B1080078630
:100E100003740F5BF510851082C000120843D000E8
:100E200080D72007030208BDAB141514EB70030232
:100E300008BD75822012082980EE8A8212082902D4
:100E400008BD85118285128322AA82BA0A081099E8
:100E50000280FB75990D10990280FB8A992220F778
:100E60001430F6148883A88220F507E6A8837583DA
:100E70000022E280F7E49322E022AA82AB83ACF066
:100E80007D007E008A828B838CF0120E5EFFA3AA07
:100E900082AB83EF60070DBD00EA0E80E78D828E86
:100EA000832200000000000000000000000000009D
:00000001FF
