:1000000002002E750800E4F509F50AE4F50BF50C7D
:10001000E4F50DF50EE4F50FF510220000000000E8
:1000200000000000000000000000000201367581A1
:100030003C1200CFE582600302009A780079007AD2
:10004000007B007C007D00EC4D601C88828983E48D
:1000500093A3A882A9838A828B83F0A3AA82AB830D
:100060001CBCFFE31D80E07582007583007C007D71
:1000700000EC4D600AE4F0A31CBCFFF51D80F27596
:1000800082007583007C007D00EC4D600AE4F0A3E3
:100090001CBCFFF51D80F212000312039B80FE3191
:1000A0003220200031332020005265636569766577
:1000B000643A2025630A00256420256420256420F5
:1000C00025640D003C4E4F20464C4F41543E00539A
:1000D000D9BF75FF8075EF0643A90343B203758D41
:1000E00030538EF4438E08858D8B53890F438920BE
:1000F000D28E75985275A41043A60675E10575E277
:1001000040438E045389F0438902758C60758A6080
:10011000D28C75C15C43C180D2A275C800438E10D9
:1001200075CA7875CBEC75CCFF75CDFFD2ADD2CA50
:10013000D2AF75820022C0E0C0F0C002C003C0048C
:10014000C0D075D000AABF75BF00C2CF0508E508B2
:10015000249B5003750800AB087C00C3E5099BE5B0
:100160000A64808CF063F08095F09200B392A0ABAB
:10017000087C00C3E50B9BE50C64808CF063F08089
:1001800095F09200B392A1AB087C00C3E50D9BE50E
:100190000E64808CF063F08095F09200B392A2AB75
:1001A000087C00C3E50F9BE51064808CF063F08051
:1001B00095F09200B392A38ABFD0D0D004D003D0E0
:1001C00002D0F0D0E032AA82ABBF75BF0F43E4018A
:1001D0007592807593448592948593957591047C6E
:1001E00000C3EC9A500BE59130E7FB53917F0C80F4
:1001F000F07591008BBF22AA82AB83ACF0FD75E550
:100200000C75D2108A178B188C198D1A906C00758A
:10021000F0DC7402120477AA82AB83ACF0C313F54E
:1002200014EC13F513EB13F512EA13F5117517FF20
:100230007518FF751900751A00851182851283855E
:1002400013F0E514120477AE82AF83A8F0F9C3EE81
:100250009401EF9400E89400E99400501CE4C395E5
:1002600011FAE49512FB74019513FCE49514FD8AD0
:10027000B48BB543AC0302033DC3EE9404EF94008A
:10028000E89400E994005039E514C313FDE5131315
:10029000FCE51213FBE51113FAEDC313FDEC13FC9F
:1002A000EB13FBEA13FAE4C39AFAE49BFB74019C98
:1002B000FCE49DFD8AB48BB553ACFC43AC01020356
:1002C0003DC3EE940CEF9400E89400E9940050369E
:1002D00075170CE4F518F519F51A85118285128346
:1002E0008513F0E514120477AA82AB83ACF0FDE429
:1002F000C39AFAE49BFB74019CFCE49DFD8AB48BD9
:10030000B553ACFC8037751730E4F518F519F51ABC
:100310008511828512838513F0E514120477AA8271
:10032000AB83ACF0FDE4C39AFAE49BFB74019CFC44
:10033000E49DFD8AB48BB553ACFC43AC0243D202BE
:1003400043AC4075E30175E24022AA82BA0A0BE58C
:10035000D230E1FB53D2FD75D30DE5D230E1FB5332
:10036000D2FD8AD322749FC0E07400C0E07480C0C4
:10037000E01204F1158115811581E5D230E0FB749E
:10038000A4C0E07400C0E07480C0E01204F11581E4
:100390001581158153D2FE85D3822290C20075F05B
:1003A00001E41201F7120365AA8243D201EAFB338A
:1003B00095E0FCC002C003C00474A9C0E07400C092
:1003C000E07480C0E01204F1E58124FBF581D002E5
:1003D000BA7517750B64E4F50C750F64E4F510E459
:1003E000F509F50AF50DF50E805FBA641775096415
:1003F000E4F50A750D64E4F50EE4F50BF50CF50F64
:10040000F5108045BA7217750964E4F50A750F6432
:10041000E4F510E4F50BF50CF50DF50E802BBA6C38
:1004200017750B64E4F50C750D64E4F50EE4F5093D
:10043000F50AF50FF5108011E4F50BF50CF50DF547
:100440000EF509F50AF50FF510C00FC010C00DC06C
:100450000EC00BC00CC009C00A74B7C0E07400C065
:10046000E07480C0E01204F1E58124F5F581758225
:10047000641201C60203A5FB7A20E4FCFDFEFFE541
:10048000822582F582E58333F583E5F033F5F0EBE1
:1004900033FB4017DAE98042E5822582F582E58365
:1004A00033F583E5F033F5F0EB33FBEC33FCED3360
:1004B000FDEE33FEEF33FFEC9517ED9518EE951931
:1004C000EF951A4013EC9517FCED9518FDEE951974
:1004D000FEEF951AFF438201DABEEB22020B328552
:1004E000823085833185F0328516339004DC020535
:1004F0009BC015858115E51524FBF533E51524FB17
:10050000F886300886310886329004DC12059BD0CC
:100510001522AA827423C0E07405C0E0C022C02363
:100520008A82220529E4B52902052A22AA8274308A
:100530002AFA24C6500A74072AFA3001034302201B
:100540008A82020512E582FAC4540FF582C00212B3
:10055000052CD002740F5AF58202052CAA24AB2573
:10056000AC26AD27AE28752F20EE2EFEED235401CC
:10057000FF4206EA2AFAEB33FBEC33FCED33FDC312
:10058000EE952B4008EEC3952BFE430201D52FD9E3
:100590008A248B258C268D278E282285822285838E
:1005A00023E4F529F52AAA30AB31AC328A828B8359
:1005B0008CF0120B47FD74012AF530E43BF5318CC9
:1005C00032EDFA7003020B2BBA25028003020B23D3
:1005D000C205C206C207C208C209C20AC20BC20CC7
:1005E000C202C203C204752B00752C00752DFFAB2F
:1005F00030AC31AD328B828C838DF0120B47FAA375
:10060000AB82AC838B308C318D32BA25078A821253
:10061000051280928A06BE3000402E8A06EE24C65D
:10062000402774FFB52D13E52C75F00AA4FEEA24CB
:10063000D02EF52C70BFD20680BBE52D75F00AA434
:10064000FEEA24D02EF52D80ACBA2E0A74FFB52D0B
:10065000A4752D00809F8A06BE6100400E8A06EEBA
:10066000248540075302DFD2018002C201BA200272
:100670008075BA23030206F6BA2A030206FBBA2BD8
:1006800002805FBA2D028055BA4202805FBA4303EE
:10069000020740BA440302087BBA4503020895BA30
:1006A0004603020891BA4703020899BA49030208AF
:1006B0007BBA4C02803BBA4E0302089DBA4F03023C
:1006C0000882BA5003020814BA5303020764BA55E9
:1006D00003020887BA580302088C0208C7D2050231
:1006E00005F5D2070205F5D2080205F5D20A020582
:1006F000F5D20B0205F5D20C0205F574FFB52D20DD
:10070000300A0BE53314F88833862C0205F5E533FF
:1007100024FEF888338606088607188E2C0205F515
:10072000300A0BE53314F88833862D0205F5E533DE
:1007300024FEF888338606088607188E2D0205F5F4
:10074000300A0AE53314F888338602800FE5332433
:10075000FEF888338603088604188B028A82120505
:10076000120208CCE53324FDF8883386030886049A
:1007700008860518188B248C258D268B828C838DFA
:10078000F0120B7CAB82AC838B2E74FFB52D0385EE
:100790002E2D20051DC3E52E952C5016E52CC39556
:1007A0002EF52CAB2C152CEB60087582201205124F
:1007B00080F18524828525838526F0120B47FBFA7C
:1007C0006029AB2D152DC3E464808BF063F0809518
:1007D000F050188A82120512AB24AC25AD260BBB53
:1007E00000010C8B248C258D2680C7200503020870
:1007F000CCC3E52E952C40030208CCE52CC3952EE6
:10080000F52CAB2C152CEB70030208CC7582201252
:10081000051280EEE53324FDF8883386030886044C
:1008200008860518188B248C258D26E526FB30E7D5
:10083000047A438013EB546060047A50800AEB30F2
:10084000E6047A4980027A588A82C002120512753B
:10085000823A1205127582301205127582781205DD
:1008600012D002BA4902800BBA5002800685258256
:100870001205458524821205458051D209752B0A3F
:10088000804A752B088045752B0A8040752B108097
:100890003BD2028037D2038033D204802FE5332449
:1008A000FDF88833860308860408860518188B240B
:1008B0008C258D268B828C838DF0E529120B63A30A
:1008C000E52A120B6380058A821205122002062097
:1008D000030330045AE53324FCF888338603088682
:1008E000040886050886061818188B248C258D2682
:1008F0008E277524C47525007526808524348525AA
:100900003585263674012534FEE43535FFAB368E49
:10091000248F258B268534828535838536F0120B0E
:1009200047FBFA70030205A68A8212051280CCE505
:100930002B70030205A67B3C300A2BE53314F888A4
:1009400033E6FC3395E0FDFEFF8C248D258E268F4B
:100950002720095EAC247D007E007F008C248D253D
:100960008E268F27804C300B1FE53324FCF888330C
:1009700086040886050886060886071818188C2439
:100980008D258E268F27802AE53324FEF88833862E
:100990000408860518ED3395E0FEFF8C248D258E26
:1009A000268F2720090CAC24AD257E007F008E26E3
:1009B0008F27300C43E524452545264527603974AB
:1009C00008B52B0C758230C003120512D0038028A5
:1009D0007410B52B23758230C003120512D003307A
:1009E000010C758278C003120512D003800A75824B
:1009F00058C003120512D003300925AC24AD25AE32
:100A000026E527FF30E717C3E49CFCE49DFDE49E48
:100A1000FEE49FFF8C248D258E268F278002C2093D
:100A2000752E00D20D8B00752800C00012055CD019
:100A300000200D0DE528C4FCE6FD4CF61888038067
:100A400002A628052EB20DE524452545264527702A
:100A5000D68803E52C7003752C0120061A20051793
:100A6000E52E04FCC3952C500E758220C0031205A0
:100A700012D003152C80E930090E75822DC00312A7
:100A80000512D003152C8024E52E602030070E754A
:100A9000822BC003120512D003152C800F30080CD6
:100AA000758220C003120512D003152C20051EAC40
:100AB0002C152CC3E52E9C50273006047C30800278
:100AC0007C208C82C003120512D00380E2C3E52E85
:100AD000952C5009E52CC3952EF52C8003752C0020
:100AE0008B00AB2E152EEB6022B20D200D0A08E60E
:100AF000C4540FFB8B2880078603740F5BF5288591
:100B00002882C00012052CD00080D72005030205E2
:100B1000A6AB2C152CEB70030205A67582201205DE
:100B20001280EE8A821205120205A6852982852A84
:100B30008322AA82BA0A0810990280FB75990D10C7
:100B4000990280FB8A992220F71430F6148883A832
:100B50008220F507E6A88375830022E280F7E493FC
:100B600022E02220F71030F6118883A88220F507B2
:100B7000F6A88375830022F280F7F022AA82AB8365
:100B8000ACF07D007E008A828B838CF0120B47FFD5
:100B9000A3AA82AB83EF60070DBD00EA0E80E78D4C
:100BA000828E832200000000000000000000000090
:00000001FF
