:1000000002002E752300E4F524F525E4F526F527F6
:10001000E4F528F529E4F52AF52B2200000000007C
:10002000000000000000000000000002022C7581AA
:10003000581201C5E582600302009A780079007ABF
:10004000007B007C007D00EC4D601C88828983E48D
:1000500093A3A882A9838A828B83F0A3AA82AB830D
:100060001CBCFFE31D80E07582007583007C007D71
:1000700000EC4D600AE4F0A31CBCFFF51D80F27596
:1000800082007583007C007D00EC4D600AE4F0A3E3
:100090001CBCFFF51D80F212000312060880FE450D
:1000A0007874656E73696F6E20747970653A202577
:1000B00030327820202530327820202530327820C8
:1000C000202530327820202530327820202530320B
:1000D000780A001B5B324A005371756172652077A4
:1000E0006176652067656E657261746F7220666FF8
:1000F000722074686520463338782E0D0A4368658F
:10010000636B2070696E732050322E3020616E64F4
:100110002050322E31207769746820746865206F12
:100120007363696C6C6F73636F70652E0D0A001BCF
:100130005B324A1B5B313B3148000A0A5749492070
:100140004E756E636875636B20493243205265615A
:100150006465720A004F66667365745F583A2534A9
:1001600064204F66667365745F593A2534640A0AE1
:1001700000427574746F6E73285A3A25632C2043BD
:100180003A256329204A6F79737469636B28253493
:10019000642C202534642920416363656C65726F8B
:1001A0006D65746572282533642C202533642C20FA
:1001B000253364291B5B304A0D003C4E4F20464CD2
:1001C0004F41543E0053D9BF75FF8075EF0643A9D8
:1001D0000343B203758D30538EF4438E08858D8BA7
:1001E00053890F438920D28E75985275A41043A667
:1001F0000675E10575E240438E045389F043890298
:10020000758C60758A60D28C75C15C43C180D2A246
:1002100075C800438E1075CA7875CBEC75CCFF7528
:10022000CDFFD2ADD2CAD2AF7582002232AA82AB44
:10023000BF75BF0F43E40175928075934485929416
:100240008593957591047C00C3EC9A500BE5913031
:10025000E7FB53917F0C80F07591008BBF22858264
:10026000C2C2C030C0FD22C2C030C0FD85C28222E1
:10027000D2C1D2C5C2C4C2C030C0FDC2C522D2C420
:10028000C2C022AA82AB83ACF0FD75E50C75D2101A
:100290008A4F8B508C518D52906C0075F0DC74023B
:1002A0001207CAAA82AB83ACF0C313F52FEC13F587
:1002B0002EEB13F52DEA13F52C754FFF7550FF75D6
:1002C0005100755200852C82852D83852EF0E52FF7
:1002D0001207CAAE82AF83A8F0F9C3EE9401EF947F
:1002E00000E89400E99400501CE4C3952CFAE495CE
:1002F0002DFB7401952EFCE4952FFD8AB48BB5433C
:10030000AC030203C9C3EE9404EF9400E89400E93F
:1003100094005039E52FC313FDE52E13FCE52D1392
:10032000FBE52C13FAEDC313FDEC13FCEB13FBEA16
:1003300013FAE4C39AFAE49BFB74019CFCE49DFD70
:100340008AB48BB553ACFC43AC010203C9C3EE9431
:100350000CEF9400E89400E994005036754F0CE4DB
:10036000F550F551F552852C82852D83852EF0E5CB
:100370002F1207CAAA82AB83ACF0FDE4C39AFAE459
:100380009BFB74019CFCE49DFD8AB48BB553ACFCD3
:100390008037754F30E4F550F551F552852C828544
:1003A0002D83852EF0E52F1207CAAA82AB83ACF00D
:1003B000FDE4C39AFAE49BFB74019CFCE49DFD8A76
:1003C000B48BB553ACFC43AC0243D20243AC4022E5
:1003D000AA82BA0A0BE5D230E1FB53D2FD75D30DE8
:1003E000E5D230E1FB53D2FD8AD322E5D230E0FBE7
:1003F00053D2FE85D382221202707582A412025E4D
:100400007582F012025E75825512025E12027E75CE
:10041000820112022D1202707582A412025E758290
:10042000FB12025E75820012025E12027E7582016C
:1004300012022D1202707582A412025E7582FA12E7
:10044000025E12027E75820312022D120270758204
:10045000A512025E7A00BA06005015EA2430F8C0F0
:1004600002C000120267E582D000D002F60A80E6E0
:10047000C2C112027E75820312022D30004BAA35D2
:100480007B00AC347D008533367537008532387596
:10049000390085313A753B00AE307F00C002C003A1
:1004A000C004C005C036C037C038C039C03AC03BF0
:1004B000C006C007749FC0E07400C0E07480C0E054
:1004C000120844E58124F1F5811202707582A412AC
:1004D000025E7582F012025E7582AA12025E12023C
:1004E0007E75820112022D1202707582A412025EC4
:1004F00075824012025E75820012025E75820012E1
:10050000025E75820012025E75820012025E7582C2
:100510000012025E75820012025E12027E75820176
:1005200012022D1202707582A412025E75824012B0
:10053000025E75820012025E75820012025E758292
:100540000012025E75820012025E75820012025E67
:1005500075820012025E12027E75820112022D1255
:1005600002707582A412025E75824012025E75826C
:100570000012025E75820012025E75820012025E37
:1005800075820012025E12027E75820102022DAA9D
:1005900082AB83ACF0C002C003C00412027075824B
:1005A000A412025E75820012025E12027E75820340
:1005B00012022D1202707582A512025ED004D003C1
:1005C000D0027D00BD0600503AED2AFEE43BFF8CD0
:1005D00000C002C003C004C005C006C007C00012AE
:1005E0000267E582D000D007D006D005D004D00342
:1005F000D00264172417F98E828F8388F012086561
:100600000D80C1C2C102027E90C20075F001E412E9
:10061000028374D3C0E07400C0E07480C0E01208AC
:100620004415811581158174D8C0E07400C0E07450
:1006300080C0E0120844158115811581742FC0E037
:100640007401C0E07480C0E0120844158115811562
:1006500081743AC0E07401C0E07480C0E0120844C4
:100660001581158115817582C812022DD2001203E1
:10067000F775826412022D90003C75F04012058FD0
:10068000AA3C7B00EA2480F546EB34FFF547AC3DFD
:100690007D00EC2480F548ED34FFF549C048C049A1
:1006A000C046C0477455C0E07401C0E07480C0E02B
:1006B000120844E58124F9F58190003C75F0401260
:1006C000058FAE3C7F00EE2480FEEF34FFFFEEC3CB
:1006D0009546F542EF9547F543AC3D7D00EC24800F
:1006E000FCED34FFFDECC39548F544ED9549F54527
:1006F000E53E75F004A4FCADF0E53F75F004A4F50B
:100700004A85F04BE54075F004A4F54C85F04DE5C5
:1007100041139201E541A2E19202E54130E2077402
:10072000022CFCE43DFDE54130E3050CBC00010D6D
:10073000E54130E40B7402254AF54AE4354BF54BAC
:10074000E54130E508054AE4B54A02054BE541308C
:10075000E60B7402254CF54CE4354DF54DE5413082
:10076000E708054CE4B54C02054D3002047E3180AB
:10077000027E30EE3395E0FF300105754E31800387
:10078000754E30E54EFA3395E0FBC04CC04DC04A83
:10079000C04BC004C005C044C045C042C043C006F1
:1007A000C007C002C0037471C0E07401C0E074806F
:1007B000C0E0120844E58124EFF5818542821203EE
:1007C000D075826412022D0206B9FB7A20E4FCFD8A
:1007D000FEFFE5822582F582E58333F583E5F0337C
:1007E000F5F0EB33FB4017DAE98042E5822582F52C
:1007F00082E58333F583E5F033F5F0EB33FBEC333F
:10080000FCED33FDEE33FEEF33FFEC954FED9550ED
:10081000EE9551EF95524013EC954FFCED9550FD40
:10082000EE9551FEEF9552FF438201DABEEB2202B4
:100830000E9E85821885831985F01A85091B9008FC
:100840002F020907C008858108E50824FBF51BE590
:100850000824FBF8861808861908861A90082F12B3
:100860000907D0082220F71030F6118883A88220CB
:10087000F507F6A88375830022F280F7F022AA829A
:10088000748FC0E07408C0E0C00AC00B8A822205E1
:1008900011E4B51102051222AA8274302AFA24C684
:1008A000500A74072AFA3003034302208A8202089E
:1008B0007EE582FAC4540FF582C002120898D00275
:1008C000740F5AF582020898AA0CAB0DAC0EAD0F4E
:1008D000AE10751720EE2EFEED235401FF4206EAFE
:1008E0002AFAEB33FBEC33FCED33FDC3EE951340FA
:1008F00008EEC39513FE430201D517D98A0C8B0D60
:100900008C0E8D0F8E102285820A85830BE4F511E3
:10091000F512AA18AB19AC1A8A828B838CF0120ECE
:10092000B3FD74012AF518E43BF5198C1AEDFA7041
:1009300003020E97BA25028003020E8FC207C20877
:10094000C209C20AC20BC20CC20DC20EC204C20549
:10095000C2067513007514007515FFAB18AC19AD00
:100960001A8B828C838DF0120EB3FAA3AB82AC8308
:100970008B188C198D1ABA25078A8212087E8092EC
:100980008A06BE3000402E8A06EE24C6402774FF39
:10099000B51513E51475F00AA4FEEA24D02EF5145B
:1009A00070BFD20880BBE51575F00AA4FEEA24D01A
:1009B0002EF51580ACBA2E0A74FFB515A475150076
:1009C000809F8A06BE6100400E8A06EE248540079D
:1009D0005302DFD2038002C203BA20028075BA2319
:1009E00003020A62BA2A03020A67BA2B02805FBABC
:1009F0002D028055BA4202805FBA4303020AACBAA4
:100A00004403020BE7BA4503020C01BA4603020B8A
:100A1000FDBA4703020C05BA4903020BE7BA4C02C0
:100A2000803BBA4E03020C09BA4F03020BEEBA50D8
:100A300003020B80BA5303020AD0BA5503020BF328
:100A4000BA5803020BF8020C33D207020961D2092B
:100A5000020961D20A020961D20C020961D20D02B7
:100A60000961D20E02096174FFB51520300C0BE547
:100A70001B14F8881B8614020961E51B24FEF88804
:100A80001B8606088607188E14020961300C0BE5D8
:100A90001B14F8881B8615020961E51B24FEF888E3
:100AA0001B8606088607188E15020961300C0AE5B8
:100AB0001B14F8881B8602800FE51B24FEF8881B98
:100AC0008603088604188B028A8212087E020C387C
:100AD000E51B24FDF8881B86030886040886051894
:100AE000188B0C8C0D8D0E8B828C838DF0120ECF9B
:100AF000AB82AC838B1674FFB515038516152007E2
:100B00001DC3E51695145016E514C39516F514ABE0
:100B1000141514EB600875822012087E80F1850C94
:100B200082850D83850EF0120EB3FBFA6029AB159A
:100B30001515C3E464808BF063F08095F050188A3B
:100B40008212087EAB0CAC0DAD0E0BBB00010C8B02
:100B50000C8C0D8D0E80C7200703020C38C3E516E0
:100B600095144003020C38E514C39516F514AB1424
:100B70001514EB7003020C3875822012087E80EE8B
:100B8000E51B24FDF8881B860308860408860518E3
:100B9000188B0C8C0D8D0EE50EFB30E7047A43802C
:100BA00013EB546060047A50800AEB30E6047A4913
:100BB00080027A588A82C00212087E75823A120830
:100BC0007E75823012087E75827812087ED002BA55
:100BD0004902800BBA50028006850D821208B18549
:100BE0000C821208B18051D20B75130A804A75131A
:100BF00008804575130A8040751310803BD204802D
:100C000037D2058033D206802FE51B24FDF8881BE0
:100C1000860308860408860518188B0C8C0D8D0E2B
:100C20008B828C838DF0E511120865A3E512120802
:100C30006580058A8212087E20040620050330069E
:100C40005AE51B24FCF8881B8603088604088605E1
:100C50000886061818188B0C8C0D8D0E8E0F750CCF
:100C6000BA750D01750E80850C1C850D1D850E1E37
:100C70007401251CFEE4351DFFAB1E8E0C8F0D8B01
:100C80000E851C82851D83851EF0120EB3FBFA7043
:100C9000030209128A8212087E80CCE513700302D7
:100CA00009127B58300C2BE51B14F8881BE6FC332B
:100CB00095E0FDFEFF8C0C8D0D8E0E8F0F200B5ED0
:100CC000AC0C7D007E007F008C0C8D0D8E0E8F0F86
:100CD000804C300D1FE51B24FCF8881B8604088619
:100CE000050886060886071818188C0C8D0D8E0EC0
:100CF0008F0F802AE51B24FEF8881B8604088605D2
:100D000018ED3395E0FEFF8C0C8D0D8E0E8F0F20AD
:100D10000B0CAC0CAD0D7E007F008E0E8F0F300ED5
:100D200043E50C450D450E450F60397408B5130CAD
:100D3000758230C00312087ED00380287410B5136A
:100D400023758230C00312087ED00330030C7582F5
:100D500078C00312087ED003800A758258C003123F
:100D6000087ED003300B25AC0CAD0DAE0EE50FFFA9
:100D700030E717C3E49CFCE49DFDE49EFEE49FFF86
:100D80008C0C8D0D8E0E8F0F8002C20B751600D24B
:100D90000F8B00751000C0001208C8D000200F0D86
:100DA000E510C4FCE6FD4CF61888038002A6100589
:100DB00016B20FE50C450D450E450F70D68803E5BC
:100DC00014700375140120081A200717E51604FC97
:100DD000C39514500E758220C00312087ED00315EF
:100DE0001480E9300B0E75822DC00312087ED003EB
:100DF00015148024E516602030090E75822BC0037F
:100E000012087ED0031514800F300A0C758220C0A2
:100E10000312087ED003151420071EAC141514C34A
:100E2000E5169C50273008047C3080027C208C82A0
:100E3000C00312087ED00380E2C3E5169514500962
:100E4000E514C39516F51480037514008B00AB16DA
:100E50001516EB6022B20F200F0A08E6C4540FFBF0
:100E60008B1080078603740F5BF510851082C0001D
:100E7000120898D00080D7200703020912AB14157E
:100E800014EB700302091275822012087E80EE8A2C
:100E90008212087E02091285118285128322AA829B
:100EA000BA0A0810990280FB75990D10990280FB0F
:100EB0008A992220F71430F6148883A88220F50737
:100EC000E6A88375830022E280F7E49322E022AA59
:100ED00082AB83ACF07D007E008A828B838CF01223
:100EE0000EB3FFA3AA82AB83EF60070DBD00EA0E2D
:100EF00080E78D828E832200000000000000000049
:00000001FF
