:1000000002002E313220200031332020005265635F
:1000100065697665643A2025630A003C4E4F2046A8
:100020004C4F41543E002200000000020106758141
:100030003612009FE582600302009A780079007A08
:10004000007B007C007D00EC4D601C88828983E48D
:1000500093A3A882A9838A828B83F0A3AA82AB830D
:100060001CBCFFE31D80E07582007583007C007D71
:1000700000EC4D600AE4F0A31CBCFFF51D80F27596
:1000800082007583007C007D00EC4D600AE4F0A3E3
:100090001CBCFFF51D80F21200261202DC80FE530C
:1000A000D9BF75FF8075EF0643A90343B203758D71
:1000B00030538EF4438E08858D8B53890F438920EE
:1000C000D28E75985275A41043A60675E10575E2A7
:1000D00040438E045389F0438902758C60758A60B1
:1000E000D28C75C15C43C180D2A275C800438E100A
:1000F00075CA7875CBEC75CCFF75CDFFD2ADD2CA81
:10010000D2AF7582002232AA82ABBF75BF0F43E423
:1001100001759280759344859294859395759104A9
:100120007C00C3EC9A500BE59130E7FB53917F0CB8
:1001300080F07591008BBF22AA82AB83ACF0FD7575
:10014000E50C75D2108A0E8B0F8C108D11906C00FF
:1001500075F0DC740212030EAA82AB83ACF0C313F9
:10016000F50CEC13F50BEB13F50AEA13F509750E14
:10017000FF750FFF751000751100850982850A83D0
:10018000850BF0E50C12030EAE82AF83A8F0F9C325
:10019000EE9401EF9400E89400E99400501CE4C34D
:1001A0009509FAE4950AFB7401950BFCE4950CFDA6
:1001B0008AB48BB543AC0302027EC3EE9404EF9481
:1001C00000E89400E994005039E50CC313FDE50BF9
:1001D00013FCE50A13FBE50913FAEDC313FDEC1359
:1001E000FCEB13FBEA13FAE4C39AFAE49BFB7401F9
:1001F0009CFCE49DFD8AB48BB553ACFC43AC01027E
:10020000027EC3EE940CEF9400E89400E994005051
:1002100036750E0CE4F50FF510F511850982850A87
:1002200083850BF0E50C12030EAA82AB83ACF0FDC4
:10023000E4C39AFAE49BFB74019CFCE49DFD8AB440
:100240008BB553ACFC8037750E30E4F50FF510F527
:1002500011850982850A83850BF0E50C12030EAA2D
:1002600082AB83ACF0FDE4C39AFAE49BFB74019C7F
:10027000FCE49DFD8AB48BB553ACFC43AC0243D285
:100280000243AC4075E30175E24022AA82BA0A0B30
:10029000E5D230E1FB53D2FD75D30DE5D230E1FB61
:1002A00053D2FD8AD3227403C0E07400C0E074808E
:1002B000C0E0120388158115811581E5D230E0FB7D
:1002C0007408C0E07400C0E07480C0E012038815B8
:1002D000811581158153D2FE85D3822290C200758B
:1002E000F001E412013843D2011202A6E582FA338A
:1002F00095E0FBC002C003740DC0E07400C0E07460
:1003000080C0E0120388E58124FBF58180D8FB7A68
:1003100020E4FCFDFEFFE5822582F582E58333F5CE
:1003200083E5F033F5F0EB33FB4017DAE98042E583
:10033000822582F582E58333F583E5F033F5F0EB32
:1003400033FBEC33FCED33FDEE33FEEF33FFEC9586
:100350000EED950FEE9510EF95114013EC950EFCF8
:10036000ED950FFDEE9510FEEF9511FF438201DA3A
:10037000BEEB220209C985823085833185F0328542
:100380000D33900373020432C008858108E5082408
:10039000FBF533E50824FBF8863008863108863201
:1003A000900373120432D00822AA8274BAC0E07497
:1003B00003C0E0C022C0238A82220529E4B52902B5
:1003C000052A22AA8274302AFA24C6500A74072AFF
:1003D000FA3000034302208A820203A9E582FAC4AC
:1003E000540FF582C0021203C3D002740F5AF58273
:1003F0000203C3AA24AB25AC26AD27AE28752F2057
:10040000EE2EFEED235401FF4206EA2AFAEB33FBFF
:10041000EC33FCED33FDC3EE952B4008EEC3952B7A
:10042000FE430201D52FD98A248B258C268D278E59
:100430002822858222858323E4F529F52AAA30AB78
:1004400031AC328A828B838CF01209DEFD74012A72
:10045000F530E43BF5318C32EDFA70030209C2BA93
:10046000250280030209BAC204C205C206C207C23D
:1004700008C209C20AC20BC201C202C203752B0024
:10048000752C00752DFFAB30AC31AD328B828C8377
:100490008DF01209DEFAA3AB82AC838B308C318DE8
:1004A00032BA25078A821203A980928A06BE3000DA
:1004B000402E8A06EE24C6402774FFB52D13E52C86
:1004C00075F00AA4FEEA24D02EF52C70BFD2058068
:1004D000BBE52D75F00AA4FEEA24D02EF52D80ACE4
:1004E000BA2E0A74FFB52DA4752D00809F8A06BE12
:1004F0006100400E8A06EE248540075302DFD200D9
:100500008002C200BA20028075BA230302058DBAA8
:100510002A03020592BA2B02805FBA2D028055BAD7
:100520004202805FBA43030205D7BA4403020712AE
:10053000BA450302072CBA4603020728BA4703024A
:100540000730BA4903020712BA4C02803BBA4E0385
:10055000020734BA4F03020719BA50030206ABBAB6
:1005600053030205FBBA550302071EBA58030207DC
:100570002302075ED20402048CD20602048CD20746
:1005800002048CD20902048CD20A02048CD20B021F
:10059000048C74FFB52D2030090BE53314F8883333
:1005A000862C02048CE53324FEF888338606088600
:1005B00007188E2C02048C30090BE53314F88833AD
:1005C000862D02048CE53324FEF8883386060886DF
:1005D00007188E2D02048C30090AE53314F888338D
:1005E0008602800FE53324FEF888338603088604EC
:1005F000188B028A821203A9020763E53324FDF8EF
:100600008833860308860408860518188B248C25F1
:100610008D268B828C838DF0120A13AB82AC838B78
:100620002E74FFB52D03852E2D20041DC3E52E95B8
:100630002C5016E52CC3952EF52CAB2C152CEB600D
:10064000087582201203A980F1852482852583857F
:1006500026F01209DEFBFA6029AB2D152DC3E464E8
:10066000808BF063F08095F050188A821203A9AB5A
:1006700024AC25AD260BBB00010C8B248C258D26CC
:1006800080C7200403020763C3E52E952C400302B4
:100690000763E52CC3952EF52CAB2C152CEB7003C2
:1006A0000207637582201203A980EEE53324FDF86A
:1006B0008833860308860408860518188B248C2541
:1006C0008D26E526FB30E7047A438013EB54606007
:1006D000047A50800AEB30E6047A4980027A588A1C
:1006E00082C0021203A975823A1203A975823012E0
:1006F00003A97582781203A9D002BA4902800BBA05
:10070000500280068525821203DC8524821203DCD8
:100710008051D208752B0A804A752B088045752BAD
:100720000A8040752B10803BD2018037D202803383
:10073000D203802FE53324FDF8883386030886042E
:1007400008860518188B248C258D268B828C838D2A
:10075000F0E5291209FAA3E52A1209FA80058A822E
:100760001203A920010620020330035AE53324FCBA
:10077000F888338603088604088605088606181854
:10078000188B248C258D268E2775241B75250075C6
:10079000268085243485253585263674012534FE4A
:1007A000E43535FFAB368E248F258B268534828544
:1007B00035838536F01209DEFBFA700302043D8AA8
:1007C000821203A980CCE52B700302043D7B173015
:1007D000092BE53314F88833E6FC3395E0FDFEFF82
:1007E0008C248D258E268F2720085EAC247D007EEC
:1007F000007F008C248D258E268F27804C300A1F89
:10080000E53324FCF8883386040886050886060844
:1008100086071818188C248D258E268F27802AE5A8
:100820003324FEF88833860408860518ED3395E0F6
:10083000FEFF8C248D258E268F2720080CAC24AD3E
:10084000257E007F008E268F27300B43E52445252B
:100850004526452760397408B52B0C758230C003D6
:100860001203A9D00380287410B52B23758230C0E1
:10087000031203A9D00330000C758278C003120361
:10088000A9D003800A758258C0031203A9D003308F
:100890000825AC24AD25AE26E527FF30E717C3E4D5
:1008A0009CFCE49DFDE49EFEE49FFF8C248D258E40
:1008B000268F278002C208752E00D20C8B00752867
:1008C00000C0001203F3D000200C0DE528C4FCE6A4
:1008D000FD4CF61888038002A628052EB20CE524EC
:1008E00045254526452770D68803E52C7003752CD1
:1008F0000120051A200417E52E04FCC3952C500E88
:10090000758220C0031203A9D003152C80E930089A
:100910000E75822DC0031203A9D003152C8024E587
:100920002E602030060E75822BC0031203A9D0035F
:10093000152C800F30070C758220C0031203A9D03C
:1009400003152C20041EAC2C152CC3E52E9C50271F
:100950003005047C3080027C208C82C0031203A905
:10096000D00380E2C3E52E952C5009E52CC3952ECB
:10097000F52C8003752C008B00AB2E152EEB60221E
:10098000B20C200C0A08E6C4540FFB8B28800786A3
:1009900003740F5BF528852882C0001203C3D000C2
:1009A00080D720040302043DAB2C152CEB7003020E
:1009B000043D7582201203A980EE8A821203A902E7
:1009C000043D852982852A8322AA82BA0A081099C1
:1009D0000280FB75990D10990280FB8A992220F7FD
:1009E0001430F6148883A88220F507E6A88375835F
:1009F0000022E280F7E49322E02220F71030F61183
:100A00008883A88220F507F6A88375830022F280E8
:100A1000F7F022AA82AB83ACF07D007E008A828B45
:100A2000838CF01209DEFFA3AA82AB83EF60070D6F
:100A3000BD00EA0E80E78D828E8322000000000058
:00000001FF
